S01500007074615F636F6E74726F6C6C65722E733337F7
S113000000000420514B00007D4B00007D4B00009C
S11300107D4B00007D4B00007D4B00007D4B0000BC
S11300207D4B00007D4B00007D4B00007D4B0000AC
S11300307D4B00007D4B00007D4B00007D4B00009C
S113004071260000919B00007D4B00007D4B000059
S113005081960000FD9B00009D9B0000B59B000065
S1130060959B000021220000F52200005927000082
S1130070954500007D4B00007D4B00007D4B00004A
S11300807D4B00007D4B000019230000111D000072
S11300907D4B00007D4B00007D4B00007D4B00003C
S11300A07D4B00007D4B00007D4B00007D4B00002C
S11300B0019C0000999B000085240000419C0000E5
S11300C07D4B00005D8300007D4B00007D4B0000F4
S11300D07D4B00007D4B00007D4B00007D4B0000FC
S11300E07D4B00007D4B00007D4B00007D4B0000EC
S11300F07D4B00007D4B00007D4B00007D4B0000DC
S11301007D4B00007D4B00007D4B000010B5054C7D
S1130110237833B9044B13B10448AFF300800123AF
S1130120237010BDD00600200000000078E8000015
S113013008B5034B1BB103490348AFF3008008BD66
S113014000000000D406002078E80000154B002BC6
S113015008BF134B9D46A3F5803A00218B460F46FA
S11301601348144A121A09F099FF0F4B002B00D0C0
S113017098470E4B002B00D0984700200021040024
S11301800D000D48002802D00C48AFF3008009F0A0
S11301903DFF2000290000F0CBFA09F011FF00BF59
S11301A0000008000000042000000000000000001F
S11301B0D006002084300020000000000000000071
S11301C00B6807EE900A0133012B0B60B8EEE77A57
S11301D006D10023C1E9010081ED037A0B61704768
S11301E0D1ED035A4A688242D4BF4A60486007EEA0
S11301F0903A37EE656AF8EE677A8A688242ACBF55
S11302008A608860C6EE276A76EEA57A37EE677A4A
S1130210C1ED037AD1ED047AE7EE067AC1ED047AF2
S11302207047000005289ABF024B53F8200002488B
S1130230704700BFCCB70000E4B700000B4B10B50B
S113024018680C4605F070FAC30706D52068084AFA
S11302501221BDE8104004F051BD064B20681A88F5
S11302600549BDE8104004F02FBD00BF3C2E00201E
S11302706CB800001407002091B8000070B54868FD
S11302800C4601F0C5FF0C4B054681B2186805F019
S1130290EDF838B12B462068084A1121BDE87040BA
S11302A004F02CBD284600F0F1F921460120BDE8F8
S11302B07040FFF7C3BF00BF3C2E0020B3B800005E
S11302C070B5084C0D68206805F0ADFA0646206844
S11302D005F0D4FA3246034603492846BDE8704087
S11302E004F0F2BC3C2E00209CB800002DE9F04143
S11302F080460D460120096801F0A6F850B3164C5B
S11303006F682668B8F1020F1CDD1449A8680AF06A
S113031036F8B8B9384601F07BFFC1B2304605F073
S11303207DFA206805F07FFA0D4B064618702068A8
S113033005F0A4FA324603460A492868BDE8F041AC
S113034004F0C2BC384601F067FF01B2304605F044
S113035081FAE6E7BDE8F0813C2E0020C8B8000031
S1130360600100209CB8000010B548680C4601F0FC
S11303704FFFC1B20031226818BF01210120BDE83E
S1130380104000F0D3BC38B5044605F009FB05461F
S113039005F006FB401BA042FAD338BD034B1B7883
S11303A0DB0701D503F0BEBF704700BF6101002029
S11303B0034B1B78DB0701D503F0CCBF704700BFAC
S11303C06101002013B50123134C022206210520EC
S11303D003F04AFA012302220721052003F044FA1C
S11303E02146062001F078FF2146072001F074FF22
S11303F00124062223461146CDE90044052003F0DA
S1130400E7F90722CDE9004423461146052003F00D
S1130410DFF902B010BD00BFF504000008B503F019
S1130420B1FF04F08FFA012004F0DCF80123042268
S11304300721022003F018FA01F040FF03490120CC
S113044001F04AFFBDE80840FFF7BCBFF504000017
S11304500021084601F06EB80021012001F06AB8BD
S1130460002170B5084600F0D7FF08B3002104202E
S113047000F0EAFF0446D8B90146022000F0E4FF88
S1130480184D20B122460121286804F061FF164C62
S113049028682188013189B204F0E8FF48B923882B
S11304A001332380114E337873B9114B01221A7032
S11304B070BD002323802188286804F0D7FF00281A
S11304C0F0D023880133F5E700222188286804F05E
S11304D06FFF0028E9D000220121286804F038FFCA
S11304E0E1E700BF3C2E002014070020090900208A
S11304F004000020012838B502D11C4B187038BD07
S113050006281CD11A4B1B4D1B684FF47A742BB967
S113051005F046FAB0FBF4F02860F0E705F040FA85
S1130520B0FBF4F02C68001BB0F57A7F03D9BDE86A
S11305303840FFF78DBFBDE83840FFF78DBF07286F
S1130540DDD10D4B0D4D1B684FF47A74002BDFD0B9
S113055005F026FAB0FBF4F02C68001BB0F57A7FA6
S1130560CDD8BDE83840FFF77BBF00BF08070020A7
S113057098211442000700209C2114420407002003
S1130580F7B50E4669460446224D05F05EF97268D9
S1130590AA4218D99DF80030022B19D11E4B9DF8A0
S11305A000101A78204604F077FA73680746AB42C5
S11305B094BF02230023694620468DF8003005F0DD
S11305C037F9C0B1FEE703D09DF80030012BE5D91F
S11305D000231A461149204604F01EFF01224FF061
S11305E0FF310E4804F024FF02280DD10C490D48B8
S11305F004F06AFBFEE7B6F91210B942A8BF394607
S1130600204605F027F9E3E7074A536F01335367A0
S113061003B0F0BD00CA9A3B600100202C08002002
S113062010B9000030B900003C08002008B50020D3
S1130630FFF7B4FE0120BDE80840FFF7AFBE00009D
S11306402C2908B596BF0B4B0B4B53F821300B48A4
S11306500A460B4904F038FBBFF34F8F09490A4B94
S1130660CA6802F4E0621343CB60BFF34F8F00BF4C
S1130670FDE700BF98B90000E4B70000E1B800004E
S1130680CEB8000000ED00E00400FA05074B81B28B
S11306901980074B01221A70064B1B7823B1064BB5
S11306A00022186804F084BE704700BF14070020BD
S11306B004000020090900203C2E0020014B0122E7
S11306C01A70704704090020014B01221A70704708
S11306D0DD080020014B01221A707047DC0800205D
S11306E073B509F081FC02AC0F4D04F8010D0F4EF7
S11306F09DF80700431EDBB2FD2B01D902B070BD8B
S11307000A2801D009F0EAFC01222146284601F01A
S113071045FC002802DD304609F0C8FC09F064FC01
S11307208DF80700E4E700BF1808002095B9000021
S113073070B5594BDB6C1B0E86B00FD15749584826
S11307404AF6E8520A60026842F0040202600B6052
S1130750544A136843F40053136001E0012BF7D0AB
S1130760514A524D136A23F4441343F48813136219
S1130770A2F58042136843F48073136003F0CAF84F
S1130780044603F0C1F8E30348BF494B494C44BF56
S113079001221A61FFF742FE4749484804F0C6FDAA
S11307A02A682060926800235168454A8DF8103009
S11307B040F6E4439142ADF812304FF00A03ADF82D
S11307C0143004A99CBF02238DF8103005F030F8D2
S11307D0064600B1FEE7FC21206805F01FF84FF43F
S11307E0007332463749206805F097F8B0F5007F6A
S11307F000D0FEE74FF00111206805F072F8296877
S1130800314A206804F07EFF21A3D3E90023CDE917
S113081000234FF0FF334FF0FF32206804F0CAFF8B
S113082032464FF0FF31206804F0CEFF274B20689A
S11308301B88ADF80C3003A904F0B7FF244B2068E3
S1130840022203A91A7004F08FFF0A21214801F043
S1130850DDFA00B9FEE701F027F81F481F4C09F044
S1130860ADFC1F4809F022FC1E4B1F491F484FF4E2
S1130870807201F087FBFFF733FF00F0A1FA2378C1
S1130880002BF8D001F0BCF9F5E700BFAFF300800E
S1130890EF7FFE7F04000000B081E00F90310E4036
S11308A098310E4064310E4000400E409804002000
S11308B000300E403C2E00202D0600006401002074
S11308C03F420F002009002081050000CCB8000041
S11308D0880200200C2E002085B90000620B002045
S11308E095B900000C00002016070020180800200D
S11308F0174B2DE9F0410D461968002300EA010267
S11309001343044621D0DFF8548002F08BFC98F89E
S11309100060092E074613D805F042F898F8003015
S11309200C4A02EB061602EB0312C2E9004501333E
S1130930B06088F800303846BDE8F04102F076BC7B
S1130940054A136801331360F5E7BDE8F08100BF81
S1130950C8080020682D0020D0080020CC08002002
S11309602DE9F0431946994685B00646104690464F
S1130970FFF7BEFF002209F0040313431EBF9A4B86
S113098001221A7008F001020023134315D03046E7
S113099005F001F8954A136807EE900A01331360D5
S11309A0FAEECF7A924B10F5007FC3ED007A40F057
S11309B077819049904804F087F908F48032002345
S11309C013431FBF8D4A136F0133136708F40042AA
S11309D0002313431FBF894AD36E0133D36608F043
S11309E01002002313431FBF844AD36A0133D36226
S11309F008F02002002313431FBF804A136B013306
S1130A00136308F040020023134310D07B4A7C4B4D
S1130A1001271F70936A3B44936200F0B9FA794B43
S1130A20196821B1784B3A46304604F09BFC08F42F
S1130A300032002313430BD001A9304604F0B7FF62
S1130A4030B99DF80430AA2B02D1304604F0AAFF35
S1130A5008F004020023134302D0304600F00EFBDA
S1130A6042F20870002100EA080201EA0903134374
S1130A7037D0634B00221A70644B1B782BB1644B44
S1130A80DB7813B1304604F05AFF08F400720023F7
S1130A9013431FBF594A936B0133936308F4806275
S1130AA0002313431FBF554AD36B0133D36308F4A8
S1130AB00052002313431FBF504A136C01331364C5
S1130AC008F48072002313431FBF4C4A536B013355
S1130AD0536308F008020023134302D0304600F0A9
S1130AE07DFB08F00202002313430DD0434A536DEB
S1130AF001335365474B01221A7004F051FF464BF2
S1130B001B68C01A454B186008F480520023134335
S1130B1000F0D380002211460E2000F007F908F0FF
S1130B208042002313431FBF344A136E01331366FC
S1130B3008F00052002313431FBF304AD36D013322
S1130B40D36508F00062002313431FBF2B4A936D43
S1130B500133936508F095520023134326D0304B9C
S1130B60C3E900892F4B01221A702F4A13680133FD
S1130B70136000F0A7FC08F40012002313431FBF06
S1130B801E4A93680133936008F400020023134360
S1130B901FBF1A4A13690133136108F0007200235E
S1130BA013431FBF154A93690133936108F0A86288
S1130BB0002313434ED01D4A1D4BC3E9008913681B
S1130BC0013313601B4B01221A7008F480020023C6
S1130BD013431FBF094AD3680133D36008F08072FE
S1130BE00023134328E000BF120700200C09002053
S1130BF008000020E8B80000FDB800003C08002010
S1130C000A090020240B00208D150000440B00204D
S1130C100509002010090020340B00200C070020D7
S1130C20F0080020F8080020D8080020D40800208C
S1130C30E8080020DC0800201FBF294A536901335B
S1130C40536108F08062002313431FBF244AD36911
S1130C500133D36108F480220023134302D03046C9
S1130C6000F0F2F908F400220023134307D01C4AD1
S1130C701368002101333046136000F0B3F908F41F
S1130C808014002554EA050307D0154A536801214E
S1130C9001333046536000F0A5F905B0BDE8F08398
S1130CA017EE902A02230A2101A804F057F801AA9A
S1130CB00C490D4804F008F87FE60C4B1B78002B18
S1130CC03FF42DAF00210E2000F0A6FB00283FF4D6
S1130CD026AF08F4E062002313437FF41BAF1EE742
S1130CE03C08002008B90000FDB8000011090020EC
S1130CF0034619B9064A074804F000B8012901D18E
S1130D00054AF8E7022901D1044AF4E7704700BF15
S1130D103CB9000051B9000054B900006AB90000A0
S1130D20014B1878704700BF200B0020114B10B501
S1130D301C7884B978B101241C700F4B18700F4BC8
S1130D4019704AB90E4B1B7813F0020F0D4B18BFE4
S1130D501A460D4B1A6010BD0C4B02F110001946D7
S1130D6052F8044B43F8044B8242F9D1064B196004
S1130D70F1E700BF230B0020210B00208404002096
S1130D8061010020C3C90000502E0020402E002025
S1130D9070B50A4D06460FCD90B001AC0FC40FCD0F
S1130DA00FC40FCD0FC495E8070084E8070010AB0B
S1130DB003EB860656F83C0C10B070BD38C9000031
S1130DC0654B1A782DE9F341002A4AD000221A70A3
S1130DD0624B634A634E1B7810783778624A002B63
S1130DE014BF04460024874215680DD1A3B1002D19
S1130DF037D02046FFF7CCFF5C490246284602B0B4
S1130E00BDE8F04103F060BF002F40F08A80002B62
S1130E1000F09D800DB913E085B12046FFF7B8FFBF
S1130E2080463846FFF7B4FF074604F0B9FD3B4659
S1130E30009042464E49284603F046FF33789BB95A
S1130E404C4B186804F09EFA012C44D122464A4BBC
S1130E501988484B186804F0A1FA484B32781A7084
S1130E60347002B0BDE8F0815A1E012A04D8414B07
S1130E70186804F098FAE7E7042B05D13D4B0021EC
S1130E80186804F09FFADFE70A2B11D84FF4CD62FB
S1130E90DA40D24312F0010514D00C2BD0D00D2B24
S1130EA0D2D1344B00220121186804F051FACBE767
S1130EB00B2BF2D12F4800231A461946006804F080
S1130EC04BFAC1E72B4B186804F05CFA2C4B1D60FD
S1130ED0FFF7FAFBB8E7022C01D10022B7E7042C94
S1130EE005D1244B0121186804F06CFAB5E7032CF2
S1130EF001D0052C02D1FFF7E1FBAEE7062C01D0AF
S1130F000A2C03D11E4B01221A60F4E7E31F012BC4
S1130F10A3D8194B1988174B0022186804F048FA13
S1130F209BE7002D9DD0174C174A002B18BF144681
S1130F30FFF72EFF06463846FFF72AFF2346CDE982
S1130F400060124A0121284603F0D8FE89E7002DEB
S1130F5087D00C4CECE700BF230B00208404002056
S1130F60210B0020200B0020502E002083C90000FC
S1130F708EC900003C2E002014070020220B002004
S1130F801C0900207BC9000074C90000ADC9000021
S1130F9008B50D4BDB78012B15D1FFF7C1FE0D28E9
S1130FA011D00A4B1B7873B9094B1888094B188068
S1130FB000F0C2FE084B186000F0E0FE074B18601A
S1130FC0074B1630186008BD05090020440B0020AB
S1130FD0520B0020500B00204C0B0020480B00202B
S1130FE0280B002038B5044601200D46FFF7E0F930
S1130FF0104B01221A7075B10F490B6813440B6032
S11310000E49002320464B600A7204F049FCBDE8F7
S11310103840FFF75FBB0A490B6801330B6009498D
S113102020464D600A7204F03BFCBDE8384000F0F5
S113103049BA00BF040000201409002088040020DD
S1131040E0080020340B0020094A38B5536E094DDE
S1131050013353662A8852B1074C0023216804F0F7
S113106057FC2A882368121A03442A80236038BD57
S11310703C0800202C0B0020300B00202DE9F04F01
S113108085B0054604F062FC484B9A6E01329A66BC
S1131090474A177804469246002F64D09C6B454E0D
S11310A0454D003418BF0124B046306804F04EFCAE
S11310B08146306804F045FC814501D93068DCB1D3
S11310C00121D8F8000004F078F9042390FBF3F030
S11310D0287374B101220221D8F8000004F038F911
S11310E001221146D8F8000004F035FC00238AF8E8
S11310F0003005B0BDE8F08F30494FF4FC7204F0C5
S113110011FC2B680393AB680293DFF8BCE06B68B7
S11311108146A446204621461FFA81FBD9450AD8B8
S1131120BCF1000F00D06B600028BED0029BAB6006
S1131130BBE73C4615E0002CF2D1039A9342F8D267
S11311401E4A885C029A00F00F0C00091EF80CC0BD
S11311501EF80000844452FA8CF20292013338469D
S1131160BC460131D8E7284604F024FC48B10022EB
S11311700023CDE9002328460422002304F01AFBAF
S1131180B7E70F4D2A88002AB3D0A24228BF2246CF
S1131190084B0C4C1868216892B204F0C3FB2A88EF
S11311A02368121A03442A802360A2E73C08002023
S11311B0FC0600203C2E0020EC06002089020020C2
S11311C0500B0020280B00204BCA00000246024BA3
S11311D00068516803C37047FC0800202DE9F047FC
S11311E0724C636A86B00133054600206362FFF7E0
S11311F0DFF86F4BDB78A046002B40F0A78002AAF3
S11312000221284604F093FBBDF80A90824609F1B6
S1131210180000F091FD074600F0B0FD0446D8B177
S1131220BDF80C60049900F116033246184608F024
S113123011FF059929B1BDF80A203044921B08F02A
S113124009FF012323720023A4F81490636022464B
S11312505146284604F06FFB564B1B78042B2DD1C6
S1131260554A564912880123284604F051FB7CBB99
S1131270D8F848300133C8F8483000210E2000F077
S1131280CBF838B14E4B1B7823B1002211460E2007
S1131290FFF74CFDFFF744FD082809D10022114651
S11312A0FFF744FDFFF78CFD464B1868FFF76BF81A
S11312B0384600F07BFD06B0BDE8F087284604F010
S11312C018FB0028D3D0404B1B78002BC8D1CEE7A5
S11312D0237EF12B02D1284604F015FB3B4B1A78F0
S11312E022B1002228461A7004F00DFB364B1A78FE
S11312F022B1002228461A7004F000FBFFF710FD0B
S113130007280FD1324A23681268134400936846B1
S11313100023ADF80430FFF759FF2E4B01221A6069
S1131320FFF7CCF92C4B1B789B0709D52B4B0122DB
S113133038461A7000F052FD3946294800F077FD0E
S1131340284994F90E00FEF73BFF96E7264B1B78DD
S1131350002BB0D1FFF7E4FC0D28244E05D1012267
S11313601146306804F0F7FAA5E7214D2A8852B1F6
S1131370204C3068216804F0D5FA2A882368121AB0
S113138003442A8023601C4B30681A681B4B1B885B
S11313909382012100231172536004F0CCFA184B9C
S11313A00F48196800F043FD85E700BF3C080020A2
S11313B00509002088020020820400208902002000
S11313C01109002000000020110700201007002050
S11313D0180900201C0900206101002004000020DD
S11313E00C2E0020B4080020440B00203C2E0020CA
S11313F0500B0020280B0020480B0020520B00202B
S11314004C0B002010B50446FFF78AFC224600214D
S1131410BDE81040FFF78ABC70B505460C46FFF7DF
S11314207FFCA8420CBF0126002609D044B12846FF
S1131430FFF7AEFC034A03461621204603F05EFC88
S1131440304670BD5BCA000038B5184B04461868B6
S11314500D4603F07BFF052C09D80123A34013F0AC
S1131460290F10D113F0140F18D19A0711D4DDB13C
S11314702046FEF7D7FE0E4A03461721284603F0FE
S11314803DFC002004E0031B584258410028EED0E4
S113149038BD01288CBF00200120F7E734EA00039F
S11314A00CBF01200020F1E72846F1E73C2E002084
S11314B082CA00000A4610B90846FFF7A3BF0121FB
S11314C0FFF734BC174B1B68002B10B50CDD164B13
S11314D01968164B4FF47A7041431548012200688D
S11314E0BDE8104003F03EBFFFF71AFC0328EED01E
S11314F0FFF716FC052804D10020BDE81040FFF7D3
S113150081BFFFF70DFC0628F6D0FFF709FC092878
S1131510F2D0FFF705FC0A28EED0BDE81040FFF733
S1131520D3B800BF1C0900205C0100208D15000009
S11315303C2E0020144B10B50C46186078B1FFF710
S1131540EFFB0928214605D1FFF7B4FFBDE81040A1
S1131550FFF7B4B80520BDE81040FFF7ABBFFFF7B5
S1131560DFFB052804D12046BDE81040FFF74ABF41
S1131570FFF7D6FB0328F6D0FFF7D2FB0928F2D0F9
S113158021460320E7E700BF1C0900207047000044
S1131590134B93F900204FF40073EAB1114A13601E
S11315A0114B93F900309BB1104B596A6422B1FB83
S11315B0F2F302FB13130E4A92F90020934207D26E
S11315C00C4B93F900204FF400633AB1054A1360C1
S11315D0094B01221A707047084AE0E7074AF6E708
S11315E0540B00206CA000445E0B002000800140DE
S11315F05F0B0020600B0020570B00206CA00046FE
S113160008B1FFF7C5BF0C4B93F900204FF40073EA
S11316106AB10A4A13600A4B93F900204FF400633D
S11316203AB1064A1360074B00221A707047064A03
S1131630F0E7054AF6E700BF540B00206CA0004613
S1131640600B0020570B00206CA0004470B5424D85
S1131650424C2B6894F900209A4276D0404B93F97F
S113166000305BB13F4B596A6422B1FBF2F302FBD9
S113167013133D4A92F90020934230D33B4B93F924
S1131680003053B3374A506A6421B0FBF1F301FBD5
S11316901303374890F9000083421ED2526A354E34
S11316A01E23B2FBF3F003FB102000FB0111324BAD
S11316B03068012203F056FE306803F069FE38B941
S11316C02B6894F900209A42F6D1306803F05AFE50
S11316D02B6894F900209A4201D0FFF759FF274B59
S11316E093F90030002B35D0254B93F900308BB3A0
S11316F01C4A506A6421B0FBF1F301FB1303214837
S113170090F90000834225D2526A1A4E1423B2FB88
S1131710F3F003FB102000FB0111174B306801228A
S113172003F020FE306803F033FE48B92B6894F9C7
S113173000209A42F6D1FFF763FF306803F022FEDF
S11317402B6894F900209A4204D00020BDE8704030
S1131750FFF756BF70BD00BFA80F14425D0B0020F9
S11317605A0B0020008001405B0B0020580B002026
S1131770590B00203C2E00208D150000550B002035
S1131780570B0020560B002007B50121224801F019
S11317908DF8224B032293F900300A21022002F033
S11317A063F81F4B032293F900300921002002F053
S11317B05BF8002304220921022002F055F80023DB
S11317C01A460B21022002F04FF8164B93F9002021
S11317D04FF40073B2B1144A136014490A2000F0A4
S11317E07BFD01230A220220CDE90033114601F0DA
S11317F0EFFF122001F024FD30B103B05DF804EBDB
S113180000F05CBD0A4AE7E70A2001F019FD002850
S1131810F3D103B05DF804FB003508005D0B002034
S11318205C0B0020540B00206CA000464D160000F9
S11318306CA0004470B5012188B01848184C01F020
S113184035F8184A1068516801AB03C300251189A3
S1131850927A198001269A7029460A2301AA204601
S1131860CDF81250CDF816508DF81230CDF819502D
S11318708DF810608DF8116002F02CF901AA314640
S1131880204602F027F940F27713E56604A9E567DC
S11318902046E36102F0D8F808B070BD00120400DD
S11318A000840140B0CA000008B500F0E3FE02F075
S11318B0A3FE012002F096FEFFF766FFBDE8084094
S11318C0FFF7B8BF2DE9F04F2D4B2E4893F900E0F8
S11318D02D4B2E4993F900202D4BDFF8E0C093F9EE
S11318E000802C4B2C4D93F900302C4C8BB0002BEA
S11318F014BF0B4603460093294B9CF900B093F99F
S11319000060284BDFF8B8C093F90090264B9CF98F
S113191000C093F90070254B93F900A0244B93F970
S11319200030002E14BF2E462646002B14BF2B4633
S11319302346002F14BF2F462746BCF1000F18BFC3
S11319402C461C4D95F90050002A14BF0A46024645
S1131950CDE9053BCDE90745B8F1000F14BF0B46AF
S11319600346CDE9037ABEF1000F08BF0146CDE975
S11319700169114808F09AFB0BB0BDE8F08F00BF75
S11319805D0B00205CCB0000540B002051CB000009
S11319905C0B0020600B002086C9000068CB0000AF
S11319A0550B0020560B0020580B0020590B00202B
S11319B05A0B00205F0B002071CB00005B0B002052
S11319C05E0B002070B50D680C462846724908F07D
S11319D0D6FC002847D1714B1B7823B17048BDE871
S11319E0704008F0EBBB65686E49284608F0C7FCF8
S11319F0064660B96C4A012313700A2103220220AF
S1131A0001F032FF31460846FFF75CFF12E028463A
S1131A10664908F0B4FC054648B9634B0A211870BE
S1131A2003220346022001F01FFF2946EBE760482A
S1131A3008F0C4FB25685F49284608F0A0FC00288C
S1131A403BD1564B1B78002BC8D1646855492046BE
S1131A5008F095FC30BB584A012313700322092176
S1131A6001F002FF5EE05549284608F088FC002892
S1131A70E0D14A4B1B78002BB0D165684949284610
S1131A8008F07DFC014618B94D4B01221A70BBE7E2
S1131A904649284608F073FC01460028C7D1484B44
S1131AA01870B1E74149204608F069FC18B9424B67
S1131AB018700346D2E73E4891E74249284608F0A9
S1131AC05EFCD8B9354B1B78002B87D16468354947
S1131AD0204608F054FC014630B93B4B01221A70F1
S1131AE0BDE87040FFF7EEBE3049204608F047FCE1
S1131AF001460028DFD1344B1870F1E733492846FA
S1131B0008F03DFC88B9606800F082FB642801D9C4
S1131B102F4864E72F4A304B10B10121117000E0C7
S1131B201070187000210846DAE72C49284608F09E
S1131B3026FC38B9606800F06BFB6428E8D8284AB2
S1131B40284BE9E72849284608F019FC38B96068A9
S1131B5000F05EFB6428DBD8244A254BDCE72846EA
S1131B60244908F00CFC0546A0B9606800F050FB5D
S1131B706428CDD82049214A38B101230B70107054
S1131B802B4604220B2102206AE7107008700346DA
S1131B900246F7E770BD00BFF2C10000660B0020EB
S1131BA0BBCA000005CB00005D0B00200FCB00007A
S1131BB01ACB00009AC200005C0B002049C200004E
S1131BC0540B0020F1C20000600B002059C3000038
S1131BD036CB0000550B0020560B0020CBC3000071
S1131BE0580B0020590B00203DC400005A0B002064
S1131BF05B0B0020ADC400005E0B00205F0B0020D7
S1131C0038B50A4B0A4C0B4A00251D7023782BB1BA
S1131C1029460120FFF78AF8257038BD01210846BE
S1131C20FFF784F801232370F7E700BF620B00205D
S1131C30610B0020B3C5000013B5486800F0E8FA52
S1131C40431E3B2B044605D9144802B0BDE810409E
S1131C5008F0B4BA124A012313700022CDE900320D
S1131C600A221146022001F0B3FD0E4B93F9002025
S1131C704FF4007382B10C4A13600C4A0C4BC4EB52
S1131C8084141C80936943F001039361094B4FF45E
S1131C9000221A6002B010BD074AEDE736CB0000FF
S1131CA0660B0020540B00206CA00044008401400B
S1131CB0640B002000E100E06CA000460F4A936929
S1131CC023F0010313B593610D4B4FF4002200245C
S1131CD0C3F880200B4B0C4A1C7021460120FFF7EF
S1131CE025F801230A22CDE900331146022001F030
S1131CF06FFD064B1C7002B010BD00BF0084014094
S1131D0000E100E0620B0020B3C50000660B002078
S1131D10064A01235361064A1370064A1388013B9D
S1131D209BB213800BB9FFF7C9BF70470084014011
S1131D30620B0020640B0020B0F5007F38B517D883
S1131D4001F070FA0C4A00234FF4017404FB03F110
S1131D508D18895831B901222A601C4601F066FAAF
S1131D60204638BD01330A2BF0D14FF0FF34F5E79C
S1131D704FF0FF34F4E700BF680B0020431C10B59C
S1131D8004460FD009280DD801F04CFA4FF4017322
S1131D90054A6343D4580CB104339C1801F046FA45
S1131DA0204610BD0024FBE7680B002038B504462C
S1131DB001F038FA05462046FFF7E0FF30B14FF452
S1131DC00170054A60431358013B13502846BDE88F
S1131DD0384001F02BBA00BF680B002038B5044628
S1131DE001F020FA05462046FFF7C8FF30B14FF452
S1131DF00170054A60431358013313502846BDE867
S1131E00384001F013BA00BF680B00200A2938B526
S1131E1004460D4609D838B101F004FA0023A58020
S1131E20236001F003FA012038BD0020FCE7F8B577
S1131E300F460446A0B101F0F5F96688A588238809
S1131E40AE420ED2334493FBF5F205FB12339BB240
S1131E500233013644F82370668001F0E7F901206B
S1131E60F8BD9A1C013344F8227093FBF5F205FB8C
S1131E7012332380F1E773B504460D461646A2B12A
S1131E8008F098F80022026001A9204608F032FB0D
S1131E9008F090F80368BBB9204608F07AFA019B71
S1131EA01B1B1B1A584258410FE008F083F801A984
S1131EB006603246204608F0ADFBED000121A94042
S1131EC0013930EA0103E3D0002002B070BD000004
S1131ED02DE9F843002604460546374685B92248CD
S1131EE0224DDFF89880DFF8989008F067F92048D1
S1131EF008F064F90CB12268A2B90120BDE8F883A6
S1131F0028680028EBD008F044FA8046686808B1D5
S1131F1008F03FFA4745B8BF47468642B8BF064671
S1131F201035DBE7A368E3B17942404608F0BEF818
S1131F306268A2B111780F4B002908BF1A4671429A
S1131F40484608F0B3F8E16821B10B7813B10A48A8
S1131F5008F0ACF80A2008F0C1F81034CAE7054AC2
S1131F60EDE711462846F3E774CE0000ECCE0000FE
S1131F7091CE00002BCC0000BFC90000E8CE0000C9
S1131F80E7CE000040B139B101600021C0E902127E
S1131F900361017108467047012070472DE9F04F35
S1131FA016469FB00446002800F01381002900F073
S1131FB010818568E368A818984280F00E81206833
S1131FC0284408F047F8A26800233244A260029330
S1131FD00093A268AA420BD8009B2BB12068D21AA6
S1131FE0A260C11808F041F802981FB0BDE8F08F54
S1131FF023685A195B5D04930A2B01D00D2B2AD157
S113200000231370009B9D4213D023690593266817
S1132010009B1E44711E334611F8012FEAB91A7051
S1132020784909AA304608F0E6F98146002840F0CC
S1132030CE80049B0A2B05D123790D2B02D1009B62
S11320409D4203D0029B01335BB202936B1C00934D
S11320509DF8103023710135BBE7082A03D19E4255
S1132060DAD2013BD8E71A700133D5E74BF82A904E
S11320700AF1010ABAF1140F04D101213046FEF726
S113208037FED6E709AA5F49002008F0B4F9814673
S11320907BE0039B012B00F09880023B0693039A9C
S11320A0019B13444FF001084FF02E0B0793C245D8
S11320B018D1069B9A4540F38880BB680AA950460C
S11320C098474FF001083B681BB9059B002B40F073
S11320D08C80B8F1000FACD1B9F1000FA9D0002168
S11320E04846CCE7039B08F1FF329A4210DB079B7A
S11320F013F8012C2A2A68D1BBF1750F26D010D809
S1132100BBF1620F1FD0BBF1730F5ED101220FE050
S1132110019B03EB080212F8012C2A2A18BF9346EC
S1132120EAE7BBF1760F05D0BBF1770F4DD1002262
S1132130042101E0002202210AAB53F82800FFF732
S11321409AFE002841D008F10108B0E700220121DD
S1132150F2E71037002F43D0D7F80080B8F1000F12
S1132160B1D0BB68002BF4D04146484608F0DCF8F7
S11321700028EED10DF1780B09AA22494BF8508DB5
S113218008F039F94FF0010A8146B9F1000F7FF4E4
S11321906DAF7B680193002B8FD01B49184608F064
S11321A0EEF8002889D0019808F0F3F82A2103906A
S11321B0019808F0D7F8039B00283FF46FAF019A09
S11321C0013B134498423FF464AF022156E7059F54
S11321D0C0E74FF0FF33029306E76FF00103FAE71D
S11321E0059B002B3FF47BAFB8460849304608F006
S11321F09BF800287FF46DAF0598FFF769FE8046D1
S113220067E700BFF8CE0000FCCE0000FECE000061
S11322100022114608F0FEB90022114608F06AB9FE
S11322202DE9F843174E326EF36E12EA030800D517
S1132230FEE7154CDFF854900127002518EA070F34
S113224016D02368B7669BB1A16862680131A160AA
S113225028469847637B012B0AD148B909EB4513FB
S1132260197B1A7F60F3410160F3410219731A77F5
S11322700135082D4FEA470704F11004DED1BDE80B
S1132280F88300BF00200E40901F00201020002083
S113229070B5094E0446012504B970BD94FAA4F042
S11322A0B0FA80F005FA00F324EA030456F820306B
S11322B0002BF1D09847EFE710210020054B4FF495
S11322C08022C3F880211A604FF48062C3F8802111
S11322D01A60704700E100E038B504460D4600F08E
S11322E0A8FF034B43F82450BDE8384000F0A5BFD5
S11322F010210020074BD3F82804D3F81C241040E5
S113230020F42A5020F02A004004400CC3F824048E
S1132310FFF7BEBF00A00040074BD3F82804D3F852
S11323201C24104020F4AA4020F055000004000CA6
S1132330C3F82404FFF7ACBF00A000402DE9F84F18
S1132340284C4FF0000A04F1A00580464FF0000924
S11323504FF0010B237F84F81DA06BB1D4E9002357
S1132360994508BF9045104619460AD2B2EB0800B9
S113237063EB0901C4E900012834AC42EAD1BDE8A9
S1132380F88FE37F33B92377A369002BF4D084F863
S11323901DB0F1E7D4E90267B8EB000069EB010175
S11323A032463B4607F086FCB01A67EB030123690B
S11323B06269002BC4E900010BDD1344F32B636154
S11323C0E2D9461C41F10007F43BC4E900676361AC
S11323D0DAE7D31AF32B6361D6D910F1FF3641F152
S11323E0FF37F1E76021002038B5074C0025637FF3
S11323F01BB1A369216A284698470135042D04F1CD
S11324002804F4D138BD00BF60210020F0B5194E76
S113241000214FF0FF324FF0FF337418257F3DB198
S1132420D4E900459D4208BF94423CBF22462B4656
S11324302831A029F1D1104900240C705C1C08BF7C
S1132440B2F1FF3F0C4614D000279F420B496FF0B6
S1132450640608BF9642086038BF3246084904251E
S113246002440D6201234A6523704B6A43F004035E
S11324704B62F0BD6021002058210020542100202F
S1132480002004402DE9F0471E4C00F0D2FE656A9E
S1132490A269154025F0050222626A07804622D50A
S11324A0194EA768DFF86890DFF868A0012232703F
S11324B0636A23F004036362D9F80000381AFFF753
S11324C03DFFFFF791FF3846FFF7A0FFD9F8002042
S11324D0A768636DB91A9B1A9AF800200AB1994249
S11324E0E6D800233370EB0706D5064B01221A62A7
S11324F0064A1368013313604046BDE8F04700F014
S11325009CBE00BF00200440502100200022002077
S113251054210020582100202E49F0B500220B68D8
S11325202D4D104654592CB11E68AC18002E3AD1CA
S1132530234601200832282AF4D100B10B6009682F
S1132540264B0A68002A35D0DA6922F0FF02DA61E4
S1132550D8690A790243DA611A6B42F08042204951
S11325601A63204D0B6800221046545924B11E688A
S1132570AC181EBB234601200832282AF5D100B12D
S11325800B600968154B0A68FAB1DA6922F47F42D4
S1132590DA61DA69097942EA0122DA611A6B42F0F6
S11325A000421A63F0BD1E792779B74284BF2346DF
S11325B00120BFE71A6B22F08042D0E71E79277909
S11325C0B7423CBF23460120D6E71A6B22F00042F3
S11325D0E7E700BF082200201022002000300E4050
S11325E00C22002038220020074B186AC0B26FF07A
S11325F00403C00090FBF3F0044B1B68184400F381
S1132600070040B2704700BF00300E400422002093
S113261010B5144C226B616A0A4010D5124B1B682A
S11326201A682AB1002119605960FFF7DDFF90474D
S11326304FF00043E362BDE81040FFF76DBF530065
S1132640F9D50A4B1B681A6832B100211960596028
S1132650FFF7CAFF01219047024B4FF08042DA6234
S1132660E9E700BF00300E400C22002008220020C1
S1132670FFF7CEBF70B588B00D22002104A807F083
S11326800DFD0025012102232748284C8DF8101048
S1132690CDE90155264ECDF80B508DF80A3000F0E7
S11326A005F94FF6FF732946E36101AA204601F0BC
S11326B011FA8DF81250354604A9204601F0C4F9E8
S11326C01C4800F031FA9DF81230D8400133DBB2D7
S11326D00A2B30608DF8123002D8174B9842EBD891
S11326E01648174C00F020FA1649B1FBF0F128689F
S11326F0154A0025E1FB004500232046294607F042
S1132700D9FA124B094A1860114B002018709369CA
S113271023F0100393610F4B4FF40062C3F8802140
S11327201A6008B070BD00BF0002040000800140C0
S1132730602200204041050080841E0050000200F9
S113274020A1070000B0710B40420F00642200205A
S11327506822002000E100E0044BDA68D20604D5C8
S113276010225A61024B01221A7070470080014006
S1132770682200200C4B984210D90C4B984210D977
S1132780022201230A490B600A49D1F8003123F0DF
S1132790807343EA0263C1F8003170470022134694
S11327A0F0E70122FBE700BF0048E8010090D003F6
S11327B04000C84300400E400E4B30B50E4C5B68E1
S11327C0C9B2002304EBC30215798D4203D154F836
S11327D0335085420BD20133052BF3D10322054933
S11327E04B6823F0407343EA02634B6030BD527977
S11327F0F5E700BF00000E4010CF000038B5074CCD
S113280041F67133256C236401F0A0FA0021FFF72F
S1132810D3FF0DB10023236438BD00BF00000E4078
S1132820044BD3F84421D20703D4D3F840211042F7
S1132830FBD1704700400E400C4AD2F89030516AE8
S11328400B4B21F0300141F0100110B55162146BB3
S1132850C0F3C31103310F2903EA040328BF0F2176
S1132860034343EA0173136310BD00BF00400E40ED
S113287000F8FF0F044A1368002BFCD1034B58687F
S1132880C0F30140704700BFC800C64300300E408B
S113289038B5054C41F67133256C2364FFF78CFF82
S11328A00DB10023236438BD00000E40C0F30322A1
S11328B0013A38B50546092A13D8DFE802F0231394
S11328C01212051619121C20104C0020C5F30435F1
S11328D008B1FFF7A5FF04F1047405EBC404A400D8
S11328E0216038BD00200A4CF0E70120094CEDE7D7
S11328F01020094CEAE74FF48030084CE6E700204A
S1132900074CE3E70020074CE0E700BFB0400E406F
S1132910C0400E40E0400E40E8400E40F0400E4003
S113292050410E4000400E40C0F30313013B062B00
S113293025D8DFE803F0040A0E141A1E3500224BD2
S1132940D3F80001C0F3042070471F4BD3F81401DF
S1132950F8E71D4BD3F80001C0F3006070471A4B31
S1132960D3F80C01C0F308207047174BD3F80801C3
S1132970F8E7164B984204D0154B98420AD0002031
S11329807047114BD3F8203103F00F030120984016
S1132990013870470C4BD3F82031C3F30113F5E72A
S11329A00C4B98420CD003F5B01303F580539842B6
S11329B0E5D1054BD3F82801C0F30120031DE5E759
S11329C0014BD3F82831E8E700400E4060061400BC
S11329D060162A007017160008B5FFF7A5FF01302E
S11329E008BD000000F00F000138072848D8DFE8D0
S11329F000F0040F1947232D4735244BD3F89430A6
S1132A0003F00703023B022B3CD8214AD05C7047F9
S1132A101E4BD3F8803003F00703013B032B33D85C
S1132A201C4AF3E7194BD3F8843003F00703013B46
S1132A30032B29D8184AE9E7144BD3F8883003F05C
S1132A400703013B032B1FD8144ADFE70F4B1B6F0F
S1132A5013F0010F14BF0920072070470B4BD3F864
S1132A605C3103F03003202B06D0302B06D0102B22
S1132A700CBF0720012070470420704708207047CE
S1132A8000207047052070470120704700400E4029
S1132A9003CF000006CF00000ACF000006CF0000DD
S1132AA008B50146FFF79EFF1B4B994211D01B4B03
S1132AB0994212D01A4B994204D11A4BD3F8800090
S1132AC000F007000138032824D8DFE800F00A0EDC
S1132AD01612144BD3F88400F2E7124BD3F8880093
S1132AE0EEE7BDE8084001F08BB9BDE8084001F00D
S1132AF08DB9BDE8084001F086B901F04FF9094BE2
S1132B00D3F80031C3F300635A1C01239340B0FB94
S1132B10F3F008BD0020FCE703001C0005002000C2
S1132B2002001A0000400E4000F47810B0F5901F27
S1132B3008B56AD01FD8B0F5002F07D00AD8B0F571
S1132B40003F57D0B0F5802F49D098BBBDE808406E
S1132B5001F000B9B0F5402F78D0B0F5602F7DD0EA
S1132B60B0F5202F26D101F0F5F8434BD3F81431FA
S1132B70C3F304233AE0B0F5E01F52D013D8B0F504
S1132B80B01F50D0B0F5D01F3AD0B0F5A01F11D16E
S1132B903A48FFF785FF384BD3F8202102F00F02A3
S1132BA00123934023E0B0F5281F30D004D8B0F5BA
S1132BB0001F2AD0002008BDB0F5301F3CD0B0F56E
S1132BC0381FF7D12E48FFF70DFF072846D00828F5
S1132BD047D00428EED1BDE8084001F0F1B801F077
S1132BE0B9F8254BD3F80C31C3F308230133B0FBF8
S1132BF0F3F0E0E701F0AEF81F4BD3F80831F3E748
S1132C001E48BDE80840FFF74BBF1E48F9E71B48C4
S1132C10FFF746FF184BD3F82031C3F30113D84014
S1132C20C9E71948EDE71848FFF73AFF124BD3F804
S1132C302821C2F30112B3E71348FFF731FF0E4B0B
S1132C40D3F82831C3F301231A1DA9E70F48FFF76E
S1132C50C9FE072802D00928ACD177E70C4B1868C5
S1132C60A9E701F077F8044BD3F80031C3F3042348
S1132C7003FB00009FE700BF00400E4002001A0063
S1132C8098002E000500200003001C0006000C0024
S1132C90A0040020C0F30313013B10B50C46072B1E
S1132CA02CD8DFE803F004222C3642538A59FFF76C
S1132CB0A5FD5748FFF75EFD564BD3F8001121F4EC
S1132CC0F85141EA0424C3F8004101F067F80446CE
S1132CD0FFF7D0FD01462046FFF7DAFD4E48FFF727
S1132CE023FFBDE81040FFF745BD4A4BD3F814114C
S1132CF021F4F85141EA0424C3F8144110BD454BB2
S1132D00D3F8001121F0807141EA0464C3F8004152
S1132D10F4E7404BD3F80C1121F4FF3121F4807116
S1132D2041EA0421C3F80C11E8E7FFF767FD3848CE
S1132D30FFF720FD374BD3F8081121F4FF3121F4BC
S1132D40807141EA0421C3F80811BEE7334B98426D
S1132D5012D0334B984220D0324B9842CED14FF40C
S1132D608020FFF75DFD2B4BD3F8301121F00301D8
S1132D700C43C3F83041C1E701340420B4FA84F1B0
S1132D80FFF74EFD234BD3F82041C1F11F0124F07E
S1132D900F040C43C3F82041B0E701340420B4FA13
S1132DA084F1FFF73DFD1B4BD3F82041C1F11F0116
S1132DB024F0300444EA0114ECE71B4B984215D08C
S1132DC003F5B01303F58053984297D101344020A2
S1132DD0B4FA84F1FFF724FD0E4BD3F82841C1F176
S1132DE01B0124F4407444EA01240EE00134402021
S1132DF0B4FA84F1FFF714FD064BD3F82841C1F16E
S1132E001F0124F0300444EA0114C3F8284175E793
S1132E100148E80100400E40002508006006140047
S1132E2060162A0080091200701716000139FFF796
S1132E3031BF00000E4B5A6A12F0300F04D0202923
S1132E4013D0302900D011B94FF4400200E0094AF0
S1132E50D3F8901032EA0101FAD1520246BFD3F8F6
S1132E60A000C0F38020012070474FF40002EFE778
S1132E7000400E40FF33E10702280AD129B1064B76
S1132E804FF48060C3F8A800596612B10220FFF71E
S1132E90D1BF0120704700BF00400E40F8B50428A0
S1132EA050D8DFE800F00A0311636800802640254B
S1132EB006230724002950D048E04FF400764FF44D
S1132EC0807508230924F5E7002944D02C4C636A53
S1132ED013F0300F37D12B4BDB6B636ADB0705D55F
S1132EE0636A23F0300343F0100363620425022372
S1132EF00324234E3566244E33449B001F68002F61
S1132F00FCD0FAB13444A4002368002BFCD002287E
S1132F1018D1B9B11A4E716A11F0010118D0012209
S1132F202021FFF7A9FFD6F89C700122002102207E
S1132F30FFF7B4FFC7F30A00FFF77EFC356623688A
S1132F40002BFCD0F8BD0425022303240021D0E784
S1132F50FFF770FFE7E708260223094A16660A4AC4
S1132F601A4492001368002BFCD1EBE701250226DA
S1132F7000232C469EE7202610250423052499E7E8
S1132F8000400E4000300E408004F210112870B54D
S1132F9006460C4622D1042912D100F011FF054641
S1132FA0A8B10021284600F007FA06F00F06013EFA
S1132FB0072E63D8DFE806F01F145E625C7C62872C
S1132FC0052904D15E4B1D685E4B9D42E9D8023C45
S1132FD0032C53D8DFE804F016A93B420025E4E7AC
S1132FE0594D013C092C49D8DFE804F060495048A8
S1132FF0485748484846023C032C3FD8DFE804F0D1
S11330000335282F00250020042401221146FFF750
S113301045FFFFF7F3FB1DB14C4A1368002BFCD1AD
S11330204B4B4C485C67FFF77FFDFFF7A3FB00F0B9
S1133030B5FE0446FFF71EFC01462046FFF728FCB8
S1133040E5B928460121BDE8704000F0B5B9002576
S11330504148FFF78FFB02200446D6E700253E488F
S1133060FFF788FB01240320CFE701200324CCE7EA
S11330703A4DB6E73A4DB4E704232B6070BD012204
S113308011460020FFF70AFF0223F6E7012211464A
S11330901046FFF703FF0123EFE700F07FFEFFF781
S11330A069FB304B01221A600323E6E70023E4E7BF
S11330B0072C04D0092CE1D1254B012201E0244B3B
S11330C000221A67DAE7013C072CD7D801A353F88A
S11330D024F000BF273100007D3000007D30000067
S11330E0193100007D3000007D3000000B310000FC
S11330F0F530000003221649D1F85C3123F0300387
S113310043EA0213C1F85C31B8E7012211460420F6
S1133110FFF7C4FE0122EEE7012211460220FFF769
S1133120BDFE0222E7E70022E5E701221146104630
S1133130FFF7B4FE0025FFF761FB032470E700BF2F
S1133140AC040020002D310180400E40C800C6436D
S113315000400E40002508000148E80188400E4068
S113316084400E400816C84310B504461120FFF7EA
S113317039FC012200210220FFF790FE174A217C2E
S1133180536A23F00103022908BF43F00103536289
S1133190134B21781960637AA18843EAC123D3626F
S11331A0136BA07A217A03F07F630343E08843EA38
S11331B0C02343EAC11303310F2928BF0F2143EA77
S11331C001731363A37B617B1B0143EA0133E17B3E
S11331D00B43217B43EA0143536310BD00400E407F
S11331E0A004C84310B504461120FFF7FBFB0022DE
S11331F011461046FFF752FEA378627807491B0672
S113320043EAC22322781343E27843EA0223044ABE
S1133210116002F10072136010BD00BF7F1B000734
S113322038400E44EFF3108072B6704700B962B6AE
S11332307047EFF3108072B67047FFF7F7BF0000D6
S11332404109054A00F01F0352F82100D840C04349
S113325000F00100704700BF00E100E0024A13687B
S1133260002BFCD1704700BFC800C64342EA0323C9
S113327040F2011293422BD0B3F5817F08D2012B87
S11332801DD030D3B3F5807F31D0002213461CE02B
S113329040F20122934222D006D8B3F5007FF4D144
S11332A0174BD3F870310DE0B3F5407F23D040F2D3
S11332B001329342E9D1124BD3F878310BE0104B31
S11332C0D3F87431C3F30722DBB203600A6070479A
S11332D00B4BD3F874311A0EC3F30743F5E7084BCD
S11332E0D3F87831EEE7064BD3F86C31EAE7044BB8
S11332F0D3F86C31EFE7024BD3F87031EBE700BF42
S1133300B081E00F154B0228D3F8803113D0032885
S113331014D0012814BFDBB2C3F307231B0323F427
S11333207042B1B9BAB90E49CA6E22F4704213435D
S1133330CB6601207047C3F30743EFE71B0EEDE7AD
S11333400749D1F8EC2022F470421343C1F8EC3061
S1133350EFE7002AF4D00020704700BFB081E00FEF
S113336000300E40F8B5124B124DD3F8003104462C
S11333700F4600F0EFFC0646FFF770FF6A68C2F3E1
S11333800142944213D0022C02D12146FFF780FA65
S1133390C4F10202102393402B611CB9214630462C
S11333A0FFF776FA1FB1BDE8F840FFF757BFF8BD45
S11333B000400E4000300E4038B50C4B0D46D3F89B
S11333C0004128B900F0C6FCC4F3042404FB000047
S11333D0074B1B7829463BB1064B984204D8022080
S11333E0BDE83840FFF7BEBF0020F9E700400E40BB
S11333F070220020FF2C31011C4B9A6FD107FCD4A2
S11334001B6C13F003031EBF194A01211160834290
S113341003D108B9164B18607047032B00D09BB931
S1133420431E012B10D8114B4FF40022DA629A6F1D
S1133430D207FCD41A6C22F0030242F001021A648F
S11334400A4A536A1903FCD5084A1146936FDB07ED
S1133450FCD4136C23F00303034313648B6FDB0767
S1133460FCD4003018BF0120D4E700BF00300E4068
S1133470B40AC6432DE9F04F002389B0CDE90233E5
S1133480CDE90433CDE90633A0F5E163B3F5966FD6
S113349005460191934603D9002009B0BDE8F08F99
S11334A04D4BB0F5E16F8CBF4FF0010A4FF0000AAD
S11334B0D3F8683100F083801A0EC3F307430792F0
S11334C004934FF496694FF4E164DFF81081D8F85F
S11334D04C70C7F301773B46524605A902A8FFF793
S11334E0C5FED8F8EC60C6F301263346524606A959
S11334F003A8FFF7BBFE0798049A2C1B811A6143AB
S1133500B1FBF9F3D1182CBF012300238842C3D3A4
S1133510002BC1D1069A0398131A6343B3FBF9F342
S113352010EB030A2CBF012300235245B4D3002B14
S1133530B2D1059B029A981A4443B4FBF9F912EBF1
S113354009092CBF012000204B45A5D30028A3D195
S1133550BBF1000F0ED0D8F85C3023F4FE4323F007
S11335600203B5F5E16F43EA012318BF02200343C8
S1133570C8F85C30019B63B300213846FFF7C2FEF4
S1133580002889D001213046FFF7BCFE002883D0F3
S1133590124A536ED14538BFD14623F4FF73B9F1B3
S11335A0E70F23F0010328BF4FF0E709B5F5E16FFA
S11335B018BF43F0010343EA490353666DE7C3F3BD
S11335C00722DBB2079204934FF416794FF4966402
S11335D07BE7012061E700BFB081E00F00300E40BF
S11335E0304B1A6FD96CC90702F0070242D5012A81
S11335F040D9132851D9143813288CBF1023082319
S11336002849013BCA6C180322F47F4240EA032391
S11336101343CB64244BCA6C1B88C2F303222833A4
S1133620013202EB820003EB5303B3FBF0F3C86CEB
S1133630013B072B20F0EE6028BF072340F48010E5
S113364040EA0363CB64194BB3F90030002B10DB61
S11336502833500800EB420203EB5303B3FBF2F3AD
S11336600A6D072B28BF072322F0700242EA0313D6
S11336700B657047DB6CD90706D4012A04D80928E6
S11336800BD90A380928B8E7064BDB6C13F00103A1
S1133690B6D0012A03D82728AFE70423B0E70023D4
S11336A0AEE700BF00300E406C2200206E220020E6
S11336B0054A064B1B68136F23F007031843044B9A
S11336C010671888FFF78CBF00300E408009C6438E
S11336D06A22002038B5364B02229A639B6B03F0B2
S11336E00F039342044602D00025284638BDC18802
S11336F0B0F90C504A294ED9B1F5FA7F4DD340F6B2
S1133700C313994294BF4FF000514FF040512848E1
S1133710C36C23F0405323F00103002DA8BF43F0F2
S113372001030B43C364D0F8EC3043F44073C0F896
S1133730EC30C36E43F08073C3661E4B186800B14F
S11337400420FFF7B5FF1C4B218919801B4BB4F9EA
S11337500C201A801A4BA0881880FFF741FFA37B26
S1133760F3B1012B20D0012211466088FFF782FEBD
S113377005460028B8D00E4A6078D36B43F48063C2
S1133780D363FFF739FEA37AA3F1200253425341D6
S11337900C4A1360A9E70021B9E74FF08051B6E75E
S11337A0034B094A9A65DEE7014B084AFAE700BF72
S11337B000300E408009C6436C2200206E22002097
S11337C06A2200209407C64377402057372110B758
S11337D0072A70B501F003014FF00F0523D89600B6
S11337E01A4CB540256004F10074B04020600320F9
S11337F0B04001FA06F61649086001F100710E6046
S11338001449114489000B609DF81030C1F88030D0
S1133810012303FA02F2104BC3F824249DF8143058
S1133820C1F8003370BDA2F10804A4000B4EA540FA
S113383035600B4DA04028600320A04001FA04F439
S11338400849086001F100710C60D9E700A4004444
S113385008A400448020851000A0004004A4004473
S113386004A400460CA40044F0B54AB130261E4C12
S1133870012546438D4034440BB304F1C0642560F4
S11338803024444304F18044072904F5204419D822
S113389065688E000F27B74025EA070502FA06F689
S11338A03543656052B9012202FA01F130225043D6
S11338B00D4A0244A3B102F1C0621160F0BD04F1EB
S11338C08064DCE701F18045083DA668AD000F2760
S11338D0AF4026EA070602FA05F53543A560E1E79D
S11338E002F18062E9E700BF0CA0004002F0070289
S11338F042F0804201F4FE411430024B0A4343F883
S11339002020704700600E40014B01229A607047EE
S113391000500E40124BF0B55C68124D124E00235D
S113392018463768EA187F0751685A5908D4B2F51F
S1133930806F03D00DD8B2F5007F01D141F48071BE
S1133940144202D0214208BF10430833482BE8D167
S1133950F0BDB2F5006FF1D0B2F5803FEDE700BFE6
S113396000500E4038CF0000E841E00F8B784A78D1
S11339709B0143EA82030A781343CA7843EA021399
S11339800A7943EAC2234A7943EA02338A79043042
S113399043EA42430001014A1350704700200440A7
S11339A0014B1860704700BF0000844242780179DF
S11339B00378002A827870B514BF04260026002AF2
S11339C0C27814BF10250025002A42794FEA02323A
S11339D042EA012242EA0302837914BF202400242C
S11339E0002BC37942EA034343EA0603027A43EA1B
S11339F0050314BF4FF4004100212343002A14BFE0
S1133A004FF4003200220B431343014A136070BD8C
S1133A10002004400B4A536911699B0003F03C03E6
S1133A20C1F381110B438370136903F03F034370A7
S1133A309369D26903F0F003C2F3031213430370D2
S1133A40704700BFD0FF0FE00A7810B50AB902230F
S1133A50436000234362CB788C781B0443EA0463FD
S1133A600C7A23438C7943EA8423CC7943EA0423F4
S1133A704C78002C14BF4024002423434C7A002C9F
S1133A8014BF8024002423438C7A002C14BF2024E8
S1133A9000242343CC7A002C14BF10240024234395
S1133AA00C79002C14BF4FF40054002423434C79A8
S1133AB0097B002C14BF4FF080540024002943EAF2
S1133AC0040314BF082100210B4303600AB101233E
S1133AD0436010BD537810B514781B0643EA846321
S1133AE094792343947843EA0443D47843EA04332F
S1133AF0147943EA8423547943EA0423D479002CC7
S1133B0014BF4FF0804400242343147A002C14BFC4
S1133B104FF0005400242343547A927A002C14BFAB
S1133B20102400240631002A43EA040314BF0422AB
S1133B30002209011343435010BD000070B505462F
S1133B4016461C4619B91448FEF7EEFF0146202C10
S1133B5008D001D8ECB170BD402C18D0602CFAD13B
S1133B60042200E0082206FB02F35A0802EB411289
S1133B70B2FBF3F2094B203A03EAC2022B6823F0AA
S1133B8060032B602B681C432C606A61E3E7062208
S1133B90E9E71022E7E700BF40410500F8FF7F0096
S1133BA038B50546144619B90548FEF7BDFF014668
S1133BB001396400B1FBF4F10902696138BD00BF49
S1133BC040410500CB435B0003F00A03C360C160BE
S1133BD07047000040F6AA63C36041F20502002367
S1133BE003604260104A83604361C3648264436734
S1133BF08367C3670D4B0E4A984209D0904207D0A1
S1133C0003F50063984203D003F58063984201D121
S1133C100023036500239042836502D0054A904245
S1133C2000D1C365704700BFF9FF010000000140E7
S1133C3000040140000C014038B505460C46FFF76E
S1133C40C9FF8B7C1BB1036843F080430360E37CB2
S1133C501BB1237D43F08003AB65228A637B13434E
S1133C60E28913436B60D4E90112237B2846FFF7F2
S1133C7065FFA37DE27D1B07120503F0E04302F418
S1133C80E00213432B66637D1BB12B6843F480333E
S1133C902B606B6F23F030036B676A6F237E1343D3
S1133CA06B672378EB6038BD38B50C460546FFF7E3
S1133CB091FF0A8A897B0368002942F0010214BF3C
S1133CC04FF48061002113430B43227D036003689A
S1133CD0002A14BF4FF00052002213430360A37C58
S1133CE01BB1E37C43F080038365237B43F480535F
S1133CF06B60D4E901122846FFF752FF637B0BB1D6
S1133D001023EB60A37DE27D1B07120503F0E04363
S1133D1002F4E00213432B66637D1BB12B6843F46A
S1133D2080332B602378EB6038BD03691B06FCD518
S1133D30C069C0B2704703695B06FCD54163704734
S1133D4003695B06FCD5C1637047000000487047F7
S1133D5000F049020D4AD2F8943003F00703032B14
S1133D6011D0042B03D0022B0BD1094B00E0094BDB
S1133D701868D2F80031C3F304230133B0FBF3F025
S1133D807047054BF4E74FF40040F2E700400E4063
S1133D90A8040020B0040020AC04002008B5FFF7FC
S1133DA0D9FF054BD3F80831C3F308230133B0FB23
S1133DB0F3F0024B186008BD00400E40A40400203C
S1133DC0014B1868704700BFA8040020054B186019
S1133DD0054BD3F8943003F00703022B01D1FFF70E
S1133DE0DDBF7047A804002000400E40034AD2F80B
S1133DF0883043F47003C2F88830704700ED00E067
S1133E004FF4004070474FF47A707047014B1868C4
S1133E10704700BFB0040020054B1860054BD3F871
S1133E20943003F00703042B01D1FFF7B7BF7047A9
S1133E30B004002000400E40044B1B781BB1044B1F
S1133E400360002070470120704700BFAC220020AF
S1133E507222002070B50D4C247884B10C4C268855
S1133E608518B5420DDC6688CD18B54209DC52B11F
S1133E704BB1A080E18022816381002070BD0120CC
S1133E80FCE70420FAE70520F8E700BFAC22002095
S1133E90722200202DE9F04F85B00393534B1B7819
S1133EA0002B00F09E80524B1E68002E00F099807B
S1133EB0504B5F7C9846002F40F095809B68DFF85C
S1133EC038A1DFF838B1DB080193BAF80630194499
S1133ED08BB20293DDE9013202FB03660F9B1BB92F
S1133EE0184605B0BDE8F08F434B1C890F9B241A7C
S1133EF09C4228BF1C461B1B0F9398F81030012BC3
S1133F0014D8039ABAF80430B2FA82F54FEA551578
S1133F1014BF6D4205F1FF351844072CEDB280B291
S1133F202FD804449DB1012184421FD8029BFB1861
S1133F305A1103F01F0101238B405BF822100B433D
S1133F404BF82230019B01371E440020C6E70125AF
S1133F508442EBD9C10800F00702735C05FA02F24F
S1133F6023EA02030130735480B2F1E7C20800F07F
S1133F700703B55C01FA03F32B430130B35480B259
S1133F80D2E74FEAD00C10F0070006EB0C030FD079
S1133F900122824016F80CE0D2B25142013A294083
S1133FA00EEA02021143083806F80C1001330444E7
S1133FB05FEAD40909D018464A46294606F06EF845
S1133FC0B4EBC90403464B44B0D0012202FA04F412
S1133FD0E4B219786242013C0A402C4014431C703C
S1133FE0A4E701207DE70A207BE700BFAC22002084
S1133FF0B02200208022002072220020542E0020B3
S113400070B50A4C05460A4823468669C268416869
S1134010B04723683BB12B601022FF21054806F00E
S11340203DF8002070BD0B20FCE700BFB02200204B
S113403080220020542E0020F7B5194E337853BB4C
S113404000F014FF044618BB164D294600F024FF67
S11340500446E8B9144F3846FFF7D2FF0446B8B90E
S11340603B68D3B1EB686968104A9DB28FB22B46A6
S1134070178055809080D080178155817B43012221
S11340803270CDE90003024603460146FFF702FF02
S1134090204603B0F0BD0024FAE70B24F8E700BF84
S11340A0AC22002080220020B022002072220020B6
S11340B0024658B1118A93695269808901330132E9
S11340C05B1A121A9BB292B2FFF7C4BE0520704766
S11340D0F0B4D0B1C9B10E688C68A64218DA4D6844
S11340E0CA68954214DA002E14DB002D12DB016835
S11340F00F88BC420EDA49888A420BDAC0E90365AC
S1134100C0E90542F0BCFFF7D3BF0520F0BC7047FF
S11341100420FBE70320F9E730B5054687B000B378
S113412000226FF07F43C0E9012301A8FFF784FE5A
S1134130044698B9019B2B601A885B88CDE902007C
S1134140013A013B02A9284604920593FFF7C0FFF8
S1134150044618B90449284600F008F8204607B078
S113416030BD0524FAE700BF80CF000008B520B1B8
S11341701C3021B9102205F091FF052008E001F15F
S1134180100351F8042B40F8042B9942F9D1002074
S113419008BD00007FB5094B6A4603F110061546B9
S11341A018685968144603C40833B3422246F7D149
S11341B02846FFF78FFA04B070BD00BFB0D20000EC
S11341C070B51F4B86B001AA03F110061546186896
S11341D05968144603C40833B3422246F7D11B88F6
S11341E023802846174B0293FEF7BEFF1648FFF7BD
S11341F0EDFD012211460220FEF750FE042111209C
S1134200FEF7C4FE002211460320FEF747FE0F4BC3
S1134210186800906846FEF7E5FF4FF40040FFF78A
S1134220FBFD03210A48FEF7B1FE03210948FEF70E
S1134230ADFE03210848FEF7A9FE06B070BD00BF1D
S1134240C0D200005201520100F04902D2D2000053
S113425002001A0003001C000500200008B5144BDE
S1134260DB6C1B0E0FD1134913484AF6E8520A605F
S1134270026842F0040202600B60104A136843F4BF
S11342800053136001E0012BF7D00D4A136A23F4A5
S1134290441343F488131362A2F58042136843F471
S11342A080731360FFF776FFBDE80840FFF788BF0F
S11342B0B081E00F90310E4098310E4064310E40D1
S11342C000400E4008B501210748FEF7EFFA00F060
S11342D00DF80123042205210020FFF7C5FABDE8EB
S11342E0084000F089B900BF0035080008B5012175
S11342F00A48FEF7DBFA01210948FEF7D7FA04223F
S1134300114600230520FFF7AFFA052108460023D4
S11343100422FFF7A9FA002008BD00BF40410500B0
S11343200035080001280DD8084B03EBC00213F830
S11343303030516801228A4030215943044B002017
S11343405A5070474FF0FF30704700BFD8D200007A
S11343500CA00046012810D8094A12F8301002EBCC
S1134360C0020020536801229A4030234B4303F1DA
S1134370804303F520439A6170474FF0FF30704744
S1134380D8D2000008B500F013F808BD82B000EBE5
S113439040000021CDE90001DDE9002312F1FF30E6
S11343A043F1FF311343CDE90001F5D102B0704769
S11343B02DE9F0418AB0FFF751FFFFF783FF142284
S11343C00DEB0200002105F069FE464B06930C2319
S11343D00124022606278DF81E3005A90D234FF06F
S11343E0FF308DF814608DF81C708DF81D408DF829
S11343F022708DF823408DF8243001F0C7FA3A4B2F
S11344000FCB01AD85E80F00284600F0C3FA374B07
S11344103748D3F8903003F48073002B0CBFA046C8
S11344204FF00008214614BF35460325FEF73EFA37
S1134430224621464046FEF731FD29462D48FEF727
S1134440A5FD29462C48FEF7A1FD29462B482C4DF5
S1134450FEF79CFD21462B48FEF728FA21462A4800
S1134460FEF724FA28462949FFF71EFC0B236B6745
S113447003F10B23AB673946304600230422FFF7D0
S1134480F3F93246304600230721FFF7EDF93046B1
S1134490002304220821FFF7E7F9042223461146EA
S11344A01B4F1C4E0020FFF7DFF9102442F210705E
S11344B0FFF76CFFAB2128463C60FFF73CFC284625
S11344C0FFF733FC34601E20FFF760FFB921284654
S11344D03C60FFF730FC2846FFF727FC34600AB045
S11344E0BDE8F081006A1800E8D2000000400E40E8
S11344F00025080002001A0003001C00050020002B
S113450000040140404105000052040098D300001B
S11345100CA000440CA0004600207047FEE74FF4B6
S113452000534B6000207047012070470020704703
S1134530F8B50E468F180D46BD42A5EB060405D10D
S1134540002C08BF4FF0FF342046F8BD00F0BAF845
S1134550431CF5D005F8010BEEE70000044B196885
S1134560024609B903491960186802441A60704781
S1134570B42200208830002070B50E4615460C4643
S1134580A31B9D4201DC284670BD14F8010B00F00A
S1134590CBF8F5E70F4803691B0670B514D50E4D2B
S11345A02B68072B11DC0D4C2668FFF7BEFB0C4B68
S11345B098552368013323602B6801332B602368EB
S11345C0082B01D10023236070BDC36C23F00403C6
S11345D0C364F9E700000140C4220020CC2200207B
S11345E0BA220020034B10B101221A7070471870D0
S11345F0704700BFB822002030B5012189B0294896
S1134600294DFEF753F901212848FEF74FF90021FF
S1134610084601230422FFF727F90023012211464B
S11346201846FFF721F90FCD01AC0FC495E8070038
S1134630012384E80700042205210020FFF714F970
S113464001211B481B4CFEF731F908A9002501F88C
S11346501C5D2046FFF7F0FA03236367A26F22F480
S1134660F85222F01F020423A267A364124B4FF4F2
S11346708051C3F88011E26C42F00402E2642046E7
S113468019600521FFF79EFA0C4B186802222B468D
S11346902946806805F09AFD094B01221A7009B079
S11346A030BD00BF40410500B0D300000035080014
S11346B0004204000000014000E100E0F404002096
S11346C0B9220020134B1B7810B50BB9FFF794FFE8
S11346D0FEF7AFFD104B1A68002A18DD0F4A104C84
S11346E01168645C1168013111601168082904BF04
S11346F0002111601A68013A1A600A4AD36C43F027
S11347000403E4B2D364FEF798FD204610BD4FF0D5
S1134710FF34F8E7B9220020C4220020C822002078
S1134720BA2200200000014038B50E4B1B78044625
S11347300BB9FFF761FF0C4D2A782AB10A2C03D17B
S11347400D210A48FFF7F7FA21460848FFF7F3FA64
S11347502B782BB10D2C03D10A210448FFF7EBFA77
S1134760204638BDB9220020B822002000000140B4
S11347702DE9F04F614A624C10685168127A87B093
S113478003AB03C31A70D4F8B0305A0700F18B801E
S113479001215C48FEF78AF801265B48FEF722F9FE
S11347A0032107465848D4F89050FEF7EFFB5748CA
S11347B0FEF712F9D4F8F0300190DB0705F040055C
S11347C073D401215148FEF771F84FF00108FEF748
S11347D030FD4F4B1C6814F0010483464FF0000277
S11347E066D0D3F800905C6A1A605A6240F2FF7295
S11347F01A62484B4FF08042C3F880214FF0010AFF
S113480000238DF80E308DF80F3003A808238DF89F
S11348101030FFF7CBF8404B3D494FF480521A60FB
S11348201A6852001A6052B188688A689042FCD0B3
S113483088681A68013AFDD88A689042F0D01A68EC
S1134840334952081A601B68334A0920013801D0E1
S11348505B0830D15846FEF7F0FCBAF1000F48D09F
S113486001992A48FEF7E2FA294BC3F800905C62EA
S1134870B8F1000F03D000212448FEF717F8032FE6
S113488003D039462048FEF781FB25B92A4629463C
S11348900120FEF703FB1EB100211A48FEF706F8BB
S11348A007B0BDE8F08F002677E74FF000088EE7E9
S11348B0A146A246A4E7D2F800C04CEA030CC2F811
S11348C000C0D1F808E0D1F808C0E645FBD0D1F823
S11348D008E0D2F800C0BCF1010CFCD8D1F808C043
S11348E0E6451EBFD2F800C02CEA030CC2F800C093
S11348F0ACE75046FFF754F8BAE700BFCCD300004A
S113490000400E4000250800050020008009120028
S11349100020044000E100E0B404002003460849FC
S1134920002B0CD0013B88221202003253430A6848
S1134930D80AD20A5043800901D00138FDD8704703
S1134940B404002010B500F091FA00B1FEE7FFF7BF
S113495073FB00B1FEE7084C2046FFF7DDFB00B116
S1134960FEE76FF07F43C4E9013004492046BDE807
S11349701040FFF7FBBB00BFD022002080CF000017
S113498010B9024B18687047014BFBE70023002065
S113499008230020064B027B1A70064B02681A603B
S11349A0054B42681A60054B82681A600020704704
S11349B0FC220020002300200823002004230020E0
S11349C047F6FF739A4270B50D46144658D02D4BE6
S11349D01B682BB12C4B1B6813B12C4B1B6813B9F0
S11349E02A21FBF72DFE2846FFF7CAFF012D0ED121
S11349F0264B1968062331F91320A24218B202DCAF
S1134A000130C0B270BD013BF5D11846F8E7B0F9EA
S1134A100010A14203DB1E49A142B8BF214628224F
S1134A20A1F1C80393FBF2F31A4A446815785B4278
S1134A301BB29D42DCBF05F1FF331BB24FF47A7603
S1134A4004EBC3020133508852681BB211FB0020EF
S1134A5020EAE0709D4200F5FA70B0FBF6F203DD47
S1134A6034F833009042EBD203F10053013B34F8A5
S1134A703300904228BF1046002808BF0120C0E739
S1134A80FF20BFE700230020082300200423002088
S1134A90C880FFFFFC220020284B1B6870B50D4620
S1134AA014462BB1264B1B6813B1264B1B6813B954
S1134AB02A21FBF7C5FD012D0BD1072C05D82CB9F4
S1134AC0204B1B6833F9140070BD0724601EC4B268
S1134AD0F6E78CB32846FFF753FF012C02D8B0F950
S1134AE00200F1E7002D14BFF823FC239C4202DBF3
S1134AF0B0F90000E8E7144B426819780139C9B2EB
S1134B000023A5B2D8B281424FEAC30004D91618D3
S1134B1001333689AE42F5D213184FF47A705A68CD
S1134B20B3F902106043801A022291FBF2F210449E
S1134B3090FBF1F000B2C7E70448C5E7002300206A
S1134B400823002004230020FC2200200CFEFFFF89
S1134B50064880470649074A074B9A42BEBF51F8A8
S1134B60040B42F8040BF8E7FBF7F0FAED3D000004
S1134B7084E8000000000020CC060020FEE700BF0F
S1134B802DE9F04F85B0CDE90123002480460E467F
S1134B908A4627464FF07B0B96B90199404805F0A9
S1134BA04FFD002C79DA61423E4805F07FFA029B02
S1134BB013B13D4805F002FB204605B0BDE8F08F77
S1134BC02C21504605F0CEFB064690B3A0EB0A0913
S1134BD0334BC7F5807209F103018A4203EB0705E1
S1134BE055D32A465346002419460134B9F1000F1F
S1134BF004D008780A2803F101031FD082F800B01A
S1134C0028194A4605F026FA04EB09035C1C4FF008
S1134C107D0905F8039000232B553A21284605F019
S1134C20A1FB824678B9B8F1000F1FD16FF00B04D5
S1134C30B3E7504605F0ADFB8146C9E702F8010B26
S1134C4009F1FF39D0E7431C3A211846039305F0D4
S1134C5089FBF8B9B8F1010F039B0DD1AAEB05024A
S1134C60A41A22461946681C05F0FFF9002C94DBAF
S1134C70274406F1010A8FE7B8F1020F01BFAAEB3E
S1134C8005048AF800908AF801000134EEE76FF019
S1134C900A0482E76FF00C047FE7002487E700BF73
S1134CA00C230020ECD3000006D4000010B5044609
S1134CB07B2005F013FA1CB12146024805F0F6F9F1
S1134CC0012010BD01D400000EB433B505AB53F878
S1134CD0045B0193FFF7EAFF044630B90024204641
S1134CE002B0BDE8304003B070470123019A294661
S1134CF00020FFF745FF0028F1D0EFE70CB473B5AF
S1134D0006AB044653F8046B01937B200D4605F073
S1134D10E5F91CB121460D4805F0C8F90C4805F029
S1134D20C5F90199304605F08BFC7D2005F0D6F9D4
S1134D302946084805F0BAF9074805F03FFA01206A
S1134D4002B0BDE8704002B0704700BF01D400005B
S1134D50D5D30000DDD3000006D400002DE9F041D6
S1134D600C462DED028B1E4608EE102A054600283F
S1134D7079D0012977DD0A46002105F08FF9E1B2E7
S1134D804A1ED2B2F0EE487A0023B2EE047AD8B2C8
S1134D90B04239D3FDEEE77AB5EEC08A17EE903A09
S1134DA0F1EE10FAA1F10201C9B24FF0000048BFC0
S1134DB05B424FB2A854002B50D04FF00A0E4FF074
S1134DC02E0893FBFEF0FAB20EFB103C511E0CF1C0
S1134DD0300C034649B205F807C03EB18F1C374476
S1134DE0A74202BF023A05F8018051B208B1002976
S1134DF037DAB5EEC08AF1EE10FA41BF01F1FF33A4
S1134E002D226A5459B219E067EE877A0133BEE75E
S1134E1005F802C00133D8B20A1A52B2B04205EB07
S1134E200207F5D3891B4BB2013949B216B12E23BF
S1134E303B700B463022591EEA5449B2641A4B1C8B
S1134E4004F1FF3405D0013122462944284605F0F7
S1134E500CF9BDEC028B2046BDE8F0814FF0300C1C
S1134E60D9E70F46ADE70024F3E70000084B1A78B2
S1134E7010B50AB1002010BD0122064C1A7054F876
S1134E80043F002BF6D098470028F8D0F3E700BF82
S1134E903C240020B40400200E4B1B7830B5ABB189
S1134EA0002815DC0C4B2C2202FB003303F12805EF
S1134EB00A461C4603CCAC4210605160234602F102
S1134EC00802F6D120681060002030BD0348FCE7DA
S1134ED00348FAE73C2400200C240020050011803C
S1134EE002001180104B1B7830B5C3B10F4B1A6808
S1134EF0002A16DC511C19600D4903462C2000FBC6
S1134F00021203F1280518685968144603C40833CB
S1134F10AB422246F7D118682060002030BD054816
S1134F20FCE70548FAE700BF3C24002038240020B1
S1134F300C2400200500118001001180802910B587
S1134F400DD1084908480C6804EB021282424FF064
S1134F50000087BF186005481C600A6010BD044843
S1134F60FCE700BFC00400203D2C0020010011809C
S1134F7002001180004870470400118008B500F059
S1134F801DF900F0D3F8002008BD70B50E461D468B
S1134F900024AC4206EB041001D1002070BD1022A5
S1134FA0002105F07BF80134F3E72DE9F7430F46C0
S1134FB003200E210B9E00F023F9062000F003F9D4
S1134FC00A9D0135ADB22B020DF1080843F001032F
S1134FD028F8023D0221404600F0D0F8002406F1F2
S1134FE0FF390135B44207EB04100AD1022000F066
S1134FF0EAF80E21032000F00FF9002003B0BDE809
S1135000F083102100F0BAF8A1451BBF2B191B0235
S11350104FF6FF7343F0FF0302214046ADF806301C
S1135020013400F0ABF8DDE708B529B10F21032006
S113503000F0E6F8002008BD0F21032000F0ECF892
S1135040F8E7000010B58CB000F0B8F800F06EF886
S113505000F0BEF800231A460821022000F0C2F82E
S113506000231A460621022000F0BCF800231A4649
S11350700E21032000F0B6F800231A460F21032066
S113508000F0B0F800231A460D21032000F0AAF81E
S113509040220D21032000F0CBF80446002834D12F
S11350A01B4B019301238DF8143080230293CDE927
S11350B00333184B0693184B0793184B0893184B5C
S11350C00993184B8DF815000A9301A8164B0B93FE
S11350D0FFF708FF0446C0B90F21032000F090F841
S11350E00E21032000F08CF8062000F06CF80CA8C8
S11350F00423022120F82E3D00F040F8022000F0A5
S113510062F80E21032000F087F820460CB010BD91
S113511008D40000295000003D4F0000754F0000E6
S1135120AB4F00008B4F00007D4F000030B50F4D9A
S11351300FCD87B06C460FC495E8030084E80300E4
S11351400B4C0C480121FDF7B1FB0B4B029320469D
S11351506946FEF7A9FD0A236367A36F23F01F23A3
S113516043F00B230020A36707B030BD20D4000018
S1135170000401400052040040420F0070B50E4E7E
S113518005460C462CB90C4A13699B06FCD5002035
S113519070BD012C01D0EA0706D515F8011B304675
S11351A0FEF7C9FD013CEDE735F8021B3046FEF77A
S11351B0C7FD023CE6E700BF0004014008B5FFF765
S11351C0D7FA002008BD08B5FFF7A8FB002008BDEA
S11351D008B501210248FDF769FB002008BD00BFA6
S11351E00035080010B514462AB9C0B20422FEF7EF
S11351F03BFB204610BD0148FCE700BF01001380C3
S1135200012303FA01F1C0B230235843014B195072
S1135210002070470CA00046012303FA01F1C0B23C
S113522030235843014B1950002070470CA0004410
S11352302DE9F041044686B00D463048DFF8D480AD
S113524001211646FDF732FB02224FF4306104209F
S1135250FEF74CFB2A4A536923F0FF0343F004038F
S113526053619368E0B243F01003264C93602946DF
S113527000230422FEF7F8FA224603AB52F8180F73
S11352805168127A03C3002501211F481A708DF852
S11352901050FDF70BFB03211C48FDF777FE01219D
S11352A04046FDF703FB012703A88DF80C508DF849
S11352B00D508DF80F70FEF779FB234601A953F8C2
S11352C0210F01909A889B79ADF8082038468DF813
S11352D00A308DF80570FEF749FB4046FDF724FCC3
S11352E00B4BB0FBF6F00138586538469D60FEF76D
S11352F057FB284606B0BDE8F08100BF0045080012
S113530000600E4020D400000025080005002000A5
S113531000200440800912000220704700207047DA
S113532000207047012070470020704738B5064BB5
S113533004460D46186000F05FF820462946BDE893
S1135340384000F04FB800BF402C002000F0E4BC0F
S11353500846114600F080B8084611461A4600F087
S113536048BE000030B50546054800680468084694
S1135370A44611461A462B46BDE83040604700BF9C
S1135380C4040020014B1B689B681847C404002018
S1135390014B1B68DB681847C404002008B50C30B7
S11353A000F024FA08BD08B500F086FE002008BD10
S11353B008B50C3000F00DFA08BD08B50C3000F04B
S11353C0E8FA08BD08B5084601F0BEF8002008BD9B
S11353D07047431E012B03D9031F5842584170479D
S11353E00120704710B5044601F08EF900280CBF67
S11353F02046002010BD000010B5044600F06AFCF1
S1135400034AA36A002B08BF1346024A136010BD67
S1135410D1530000C804002040B139B108604FF0F6
S1135420FF304860CB608A600020704701207047DD
S113543038B504461346074A0D46126821688A4265
S113544002F10C0004D121462A4601F049F838BD86
S1135450012038BD402C002010B50C4600F046FC5D
S11354601CB100F059FC0128FBD110BDC06A30B555
S1135470C4680023A3420BD08568182202FB0352A0
S1135480D5898D4202D8128A8A4203D20133F1E7C8
S1135490012030BD002030BD73B50D4B0E4669466A
S11354A004461D6800F000FEB6F91220247947F680
S11354B0FF739A4209D028469DF80010FFF780FA3E
S11354C084428CBF0020012000E0012002B070BDA6
S11354D0402C00202DE9F04F714A724F136889B0B7
S11354E004460093656A3B68019300209D428DF851
S11354F016000E468DF81700B4F80290D4F820A0D8
S1135500904603D115B1494500F0C680BAF1000FA9
S113551000F0BD80DAF80820002A00F0B880DAF83C
S11355200C20002A00F0B3800022DAF80C108A4222
S11355301ED2DAF808104FF0180B0BFB021BBBF855
S11355400E10B14212D8BBF81010B1420ED301258F
S11355502046594602928DF81750FFF79DFF029A94
S113556018B18DF816505D4602E05D460132DCE765
S1135570A4F10C0306A92046039300F095FD2046F0
S113558000F098FD9DF81620029012B12046217972
S11355900CE09DF81720002A7BD09DF81810039882
S11355A0B5F91220FFF70CFA0146204600F052FD2F
S11355B0D8F8002072B3524523D1D7F800B0BBF11C
S11355C0000F1ED0AB451CD1B14504D1C4F824B0A2
S11355D06680002060E02A4620463146002300F021
S11355E081FD05460028F1D00299204600F032FDE5
S11355F02C4B20461A684946002300F073FD2846C8
S11356004AE0116831B1DAF80000814202D1204643
S1135610516802E0DAF80010204600F0F7FF8346F4
S1135620C0B92046296800F0F1FF834690B965624D
S11356306680204631462A460123C8F800A03D6012
S113564000F050FD834628B9174B03981B68294680
S1135650984720E0009BC8F80030019B3B60009B0A
S11356601BB12046196800F0D1FF2046029900F0D2
S1135670F1FC3B687BB11968204600F0C7FF094B79
S113568020461A684946002300F02CFD03E003205D
S113569002E0012000E0584609B0BDE8F08F00BFE9
S11356A0442C0020482C0020C8040020F8B50F1C0E
S11356B018BF012706460D4638461F21002400F076
S11356C057F93846356274621F2100F051F9E868D1
S11356D023464FF6FF72D9B281420CD2AC68182728
S11356E007FB0141CC89944201D20CB904E0144671
S11356F001332246EFE7144630462146FFF7EAFE1F
S11357002046F8BD08B5054B002A08BF1A46044BCD
S11357100C301A60FFF7CAFF08BD00BFD153000068
S1135720C804002040887047006A7047F8B50C78B8
S1135730074620460D46FFF74CFE88B16E7830468A
S1135740FFF747FE60B13443620709D400F0E4FA7E
S1135750430707D438462946BDE8F84000F058BC52
S11357600120F8BD0220F8BD08B50C30FFF7DEFFBC
S113577008BD70B5064608780C46FFF72AFE80B1CE
S113578065782846FFF725FE58B1042D09D000F0AE
S1135790C3FA830707D430462146BDE8704000F0C1
S11357A045BC012070BD022070BD08B50C30FFF768
S11357B0E0FF08BD37B5DDE906450C30CDE900450D
S11357C000F05CFA03B030BD08B50C3000F042FBC9
S11357D008BD38B505460C46FFF77CFE28B92846B7
S11357E02146BDE8384000F0D8BA38BD012A38B5A2
S11357F015460FD8FFF76EFE044668B9012001462E
S1135800FFF72AFE1DB900F05EFC284638BD00F003
S113581061FC01E0012038BD204638BD08B50C30DC
S113582000F024FC08BD08B50C3000F043FC08BDB2
S113583038B500F10C040D462046002100F016FC9A
S11358402046294600F000FC38BD08B50C3000F0B5
S11358502BFC08BD73B504460E46694600F10C05E1
S1135860FFF7F3FF9DF8001032462046FFF7A8F833
S11358700146284600F0FAFB02B070BD37B500F1CE
S11358800C0569460446FFF7E0FF284600F012FCC9
S11358909DF8001002462046FFF7FEF803B030BD25
S11358A00C3000F0CBB938B504460D46FDF7BAFC10
S11358B000232561E360BDE83840FDF7B7BC38B587
S11358C005460C46FDF7AEFC2B691C40EB682343F0
S11358D0EB60FDF7ABFC00200CB9002138BD0421BE
S11358E038BD08B50C3001F00111FFF7DCFF0020D2
S11358F008BD08B50C3000F041FC08BD08B50C30FB
S113590000F040FC08BD08B50C3000F065FC08BD93
S113591008B50C3000F072FD08BD08B50C3000F07D
S113592039FD08BD08B50C3000F080FC08BD084600
S1135930114600F09BBC0846114600F0BBBC00F0C9
S113594021BD08B50C3000F01FFD08BD08B50C30B2
S113595000F01DFD08BD38B5154600F10C0411B169
S1135960204600F035FD15B1204600F05BFD38BD42
S113597008B528B9034B1960034B1868FAF760FEA1
S113598008BD00BFCC040020402C0020084600F0D5
S113599015BF00F0A7BE08B50C3000F0FBF908BD38
S11359A000F0A3BE08B50C3000F00AFF08BD08469D
S11359B000F00AB9007B00F0010070477047000056
S11359C010B50378990704462BD5426A4AB36FF39E
S11359D04103037053691B685A1C04D01846BDE880
S11359E0104001F025BAD0E91223002203F0040389
S11359F0134304D1037843F00203037010BD4FF442
S1135A008031FFF75CFFD4E9122302400B4052EAD5
S1135A10030106D00349A4F10C000968BDE8104055
S1135A20084710BDD8040020574B2DE9F74317460B
S1135A301E6853A3D3E9002302400B4013430446DA
S1135A400D4669D0514B00F400284FF00009D3F8FB
S1135A501C1158EA090318BF4D4B4FF0000200F423
S1135A6080184FF0000918BF83E8060058EA0903BC
S1135A701CBF484B83E8060000F080520023134308
S1135A8009D0454B1B6803F07F43B3F1007F02BF8D
S1135A90424B02221A6004F00102002313432DD06A
S1135AA04FF000080022002300210120CDF80080DF
S1135AB0CDF8048003F0CCFA012002F07FFA4146CD
S1135AC070820120FFF7C8FC354B1A784FF400139D
S1135AD00AB1344A00E0344A1360344B1A683AB1CC
S1135AE033496FF0FF00086001F1007102400A6061
S1135AF000221A60337B43F008033373002205F05D
S1135B000403134308D006F10C000121FFF7D7FE6C
S1135B1025F0040504430D43D6E9152314401D4024
S1135B2054EA050318D0234B2246196830462B4605
S1135B30884717494FF0FF334FF0FF32C1E9002384
S1135B40144904F008040025C1E9002354EA0503BC
S1135B501EBF194B00221A60FB070DD51749184ABE
S1135B600868136800211160164A012111701BB1E5
S1135B7003B0BDE8F043184703B0BDE8F08300BFAD
S1135B800100181004000000402C002000500840C0
S1135B90D0040020E0040020081F00210040084633
S1135BA05B2C002018600846186008444C2C002028
S1135BB018700844D80400205C2C0020642C0020B9
S1135BC0542C0020602C002070B568B3184B194980
S1135BD05C6B1A6BD1F88C1040239340013BC1F3EA
S1135BE081119AB2144B032904F100541B68CEB2FC
S1135BF00AD1002599B2083929441140615C415504
S1135C000135082DF6D10CE002290FD19BB2991E63
S1135C101140013B615C01801340E35C41EA0321D4
S1135C2001800672002070BD012070BD022070BD8D
S1135C300010084000400840FC1E002107B591B147
S1135C400B7B0BB10B4B00E00B4BD3E90023B3F1FF
S1135C50FF3F08BFB2F1FF3F07D02830009103F0A7
S1135C6053F8002002E0012000E0022003B05DF8B8
S1135C7004FB00BFE0040020D00400202DE973439E
S1135C80DDE908450646D0E9120102EA040803EA00
S1135C90050920EA020021EA030140EA080041EA7A
S1135CA00901C6E9120122F00100194600EA0402C2
S1135CB02B40002442F0805243F0040300940194EA
S1135CC003F0C6F93046FFF77BFE204602B0BDE87C
S1135CD070830000034A0368002B08BF1346024A7E
S1135CE013607047BD590000D8040020032811D860
